{
  "_format": "hh-sol-artifact-1",
  "contractName": "Wallet",
  "sourceName": "contracts/Wallet.sol",
  "abi": [
    {
      "inputs": [
        {
          "internalType": "address[]",
          "name": "_approvers",
          "type": "address[]"
        },
        {
          "internalType": "uint256",
          "name": "_quorum",
          "type": "uint256"
        }
      ],
      "stateMutability": "nonpayable",
      "type": "constructor"
    },
    {
      "inputs": [
        {
          "internalType": "uint256",
          "name": "id",
          "type": "uint256"
        }
      ],
      "name": "approveTransfer",
      "outputs": [],
      "stateMutability": "payable",
      "type": "function"
    },
    {
      "inputs": [
        {
          "internalType": "uint256",
          "name": "",
          "type": "uint256"
        }
      ],
      "name": "approvers",
      "outputs": [
        {
          "internalType": "address",
          "name": "",
          "type": "address"
        }
      ],
      "stateMutability": "view",
      "type": "function"
    },
    {
      "inputs": [
        {
          "internalType": "uint256",
          "name": "amount",
          "type": "uint256"
        },
        {
          "internalType": "address payable",
          "name": "to",
          "type": "address"
        }
      ],
      "name": "createTransfer",
      "outputs": [],
      "stateMutability": "nonpayable",
      "type": "function"
    },
    {
      "inputs": [],
      "name": "getApprovers",
      "outputs": [
        {
          "internalType": "address[]",
          "name": "",
          "type": "address[]"
        }
      ],
      "stateMutability": "view",
      "type": "function"
    },
    {
      "inputs": [],
      "name": "getTransfers",
      "outputs": [
        {
          "components": [
            {
              "internalType": "uint256",
              "name": "id",
              "type": "uint256"
            },
            {
              "internalType": "uint256",
              "name": "amount",
              "type": "uint256"
            },
            {
              "internalType": "address payable",
              "name": "to",
              "type": "address"
            },
            {
              "internalType": "uint256",
              "name": "approvals",
              "type": "uint256"
            },
            {
              "internalType": "bool",
              "name": "sent",
              "type": "bool"
            }
          ],
          "internalType": "struct Wallet.Transfer[]",
          "name": "",
          "type": "tuple[]"
        }
      ],
      "stateMutability": "view",
      "type": "function"
    },
    {
      "inputs": [],
      "name": "quorum",
      "outputs": [
        {
          "internalType": "uint256",
          "name": "",
          "type": "uint256"
        }
      ],
      "stateMutability": "view",
      "type": "function"
    },
    {
      "inputs": [
        {
          "internalType": "uint256",
          "name": "",
          "type": "uint256"
        }
      ],
      "name": "transfers",
      "outputs": [
        {
          "internalType": "uint256",
          "name": "id",
          "type": "uint256"
        },
        {
          "internalType": "uint256",
          "name": "amount",
          "type": "uint256"
        },
        {
          "internalType": "address payable",
          "name": "to",
          "type": "address"
        },
        {
          "internalType": "uint256",
          "name": "approvals",
          "type": "uint256"
        },
        {
          "internalType": "bool",
          "name": "sent",
          "type": "bool"
        }
      ],
      "stateMutability": "view",
      "type": "function"
    },
    {
      "stateMutability": "payable",
      "type": "receive"
    }
  ],
  "bytecode": "0x60806040523480156200001157600080fd5b5060405162001534380380620015348339818101604052810190620000379190620001dd565b81600090805190602001906200004f9291906200005f565b508060018190555050506200033b565b828054828255906000526020600020908101928215620000db579160200282015b82811115620000da5782518260006101000a81548173ffffffffffffffffffffffffffffffffffffffff021916908373ffffffffffffffffffffffffffffffffffffffff1602179055509160200191906001019062000080565b5b509050620000ea9190620000ee565b5090565b5b8082111562000109576000816000905550600101620000ef565b5090565b6000620001246200011e846200026b565b62000237565b905080838252602082019050828560208602820111156200014457600080fd5b60005b858110156200017857816200015d888262000182565b84526020840193506020830192505060018101905062000147565b5050509392505050565b600081519050620001938162000307565b92915050565b600082601f830112620001ab57600080fd5b8151620001bd8482602086016200010d565b91505092915050565b600081519050620001d78162000321565b92915050565b60008060408385031215620001f157600080fd5b600083015167ffffffffffffffff8111156200020c57600080fd5b6200021a8582860162000199565b92505060206200022d85828601620001c6565b9150509250929050565b6000604051905081810181811067ffffffffffffffff82111715620002615762000260620002d8565b5b8060405250919050565b600067ffffffffffffffff821115620002895762000288620002d8565b5b602082029050602081019050919050565b6000620002a782620002ae565b9050919050565b600073ffffffffffffffffffffffffffffffffffffffff82169050919050565b6000819050919050565b7f4e487b7100000000000000000000000000000000000000000000000000000000600052604160045260246000fd5b62000312816200029a565b81146200031e57600080fd5b50565b6200032c81620002ce565b81146200033857600080fd5b50565b6111e9806200034b6000396000f3fe6080604052600436106100745760003560e01c80636cb3e8ef1161004e5780636cb3e8ef146100ff5780639377d7111461012a578063cacca4a01461016b578063d3650fb8146101875761007b565b80631703a018146100805780632f65142c146100ab5780634c12fa47146100d65761007b565b3661007b57005b600080fd5b34801561008c57600080fd5b506100956101c4565b6040516100a29190610fc2565b60405180910390f35b3480156100b757600080fd5b506100c06101ca565b6040516100cd9190610f20565b60405180910390f35b3480156100e257600080fd5b506100fd60048036038101906100f89190610bb5565b6102b8565b005b34801561010b57600080fd5b50610114610502565b6040516101219190610efe565b60405180910390f35b34801561013657600080fd5b50610151600480360381019061014c9190610b8c565b610590565b604051610162959493929190610fdd565b60405180910390f35b61018560048036038101906101809190610b8c565b610603565b005b34801561019357600080fd5b506101ae60048036038101906101a99190610b8c565b610b23565b6040516101bb9190610ee3565b60405180910390f35b60015481565b60606002805480602002602001604051908101604052809291908181526020016000905b828210156102af57838290600052602060002090600502016040518060a001604052908160008201548152602001600182015481526020016002820160009054906101000a900473ffffffffffffffffffffffffffffffffffffffff1673ffffffffffffffffffffffffffffffffffffffff1673ffffffffffffffffffffffffffffffffffffffff168152602001600382015481526020016004820160009054906101000a900460ff161515151581525050815260200190600101906101ee565b50505050905090565b6000805b600080549050811015610379573373ffffffffffffffffffffffffffffffffffffffff166000828154811061031a577f4e487b7100000000000000000000000000000000000000000000000000000000600052603260045260246000fd5b9060005260206000200160009054906101000a900473ffffffffffffffffffffffffffffffffffffffff1673ffffffffffffffffffffffffffffffffffffffff16141561036657600191505b80806103719061110d565b9150506102bc565b5060011515811515146103c1576040517f08c379a00000000000000000000000000000000000000000000000000000000081526004016103b890610f82565b60405180910390fd5b6000471415610405576040517f08c379a00000000000000000000000000000000000000000000000000000000081526004016103fc90610fa2565b60405180910390fd5b60026040518060a0016040528060028054905081526020018581526020018473ffffffffffffffffffffffffffffffffffffffff16815260200160008152602001600015158152509080600181540180825580915050600190039060005260206000209060050201600090919091909150600082015181600001556020820151816001015560408201518160020160006101000a81548173ffffffffffffffffffffffffffffffffffffffff021916908373ffffffffffffffffffffffffffffffffffffffff1602179055506060820151816003015560808201518160040160006101000a81548160ff0219169083151502179055505050505050565b6060600080548060200260200160405190810160405280929190818152602001828054801561058657602002820191906000526020600020905b8160009054906101000a900473ffffffffffffffffffffffffffffffffffffffff1673ffffffffffffffffffffffffffffffffffffffff168152602001906001019080831161053c575b5050505050905090565b600281815481106105a057600080fd5b90600052602060002090600502016000915090508060000154908060010154908060020160009054906101000a900473ffffffffffffffffffffffffffffffffffffffff16908060030154908060040160009054906101000a900460ff16905085565b6000805b6000805490508110156106c4573373ffffffffffffffffffffffffffffffffffffffff1660008281548110610665577f4e487b7100000000000000000000000000000000000000000000000000000000600052603260045260246000fd5b9060005260206000200160009054906101000a900473ffffffffffffffffffffffffffffffffffffffff1673ffffffffffffffffffffffffffffffffffffffff1614156106b157600191505b80806106bc9061110d565b915050610607565b50600115158115151461070c576040517f08c379a000000000000000000000000000000000000000000000000000000000815260040161070390610f82565b60405180910390fd5b6000471415610750576040517f08c379a000000000000000000000000000000000000000000000000000000000815260040161074790610fa2565b60405180910390fd5b600015156002838154811061078e577f4e487b7100000000000000000000000000000000000000000000000000000000600052603260045260246000fd5b906000526020600020906005020160040160009054906101000a900460ff161515146107ef576040517f08c379a00000000000000000000000000000000000000000000000000000000081526004016107e690610f42565b60405180910390fd5b60001515600360003373ffffffffffffffffffffffffffffffffffffffff1673ffffffffffffffffffffffffffffffffffffffff168152602001908152602001600020600084815260200190815260200160002060009054906101000a900460ff16151514610893576040517f08c379a000000000000000000000000000000000000000000000000000000000815260040161088a90610f62565b60405180910390fd5b6001600360003373ffffffffffffffffffffffffffffffffffffffff1673ffffffffffffffffffffffffffffffffffffffff168152602001908152602001600020600084815260200190815260200160002060006101000a81548160ff02191690831515021790555060028281548110610936577f4e487b7100000000000000000000000000000000000000000000000000000000600052603260045260246000fd5b906000526020600020906005020160030160008154809291906109589061110d565b91905055506001546002838154811061099a577f4e487b7100000000000000000000000000000000000000000000000000000000600052603260045260246000fd5b90600052602060002090600502016003015410610b1f576001600283815481106109ed577f4e487b7100000000000000000000000000000000000000000000000000000000600052603260045260246000fd5b906000526020600020906005020160040160006101000a81548160ff021916908315150217905550600060028381548110610a51577f4e487b7100000000000000000000000000000000000000000000000000000000600052603260045260246000fd5b906000526020600020906005020160020160009054906101000a900473ffffffffffffffffffffffffffffffffffffffff169050600060028481548110610ac1577f4e487b7100000000000000000000000000000000000000000000000000000000600052603260045260246000fd5b90600052602060002090600502016001015490508173ffffffffffffffffffffffffffffffffffffffff166108fc829081150290604051600060405180830381858888f19350505050158015610b1b573d6000803e3d6000fd5b5050505b5050565b60008181548110610b3357600080fd5b906000526020600020016000915054906101000a900473ffffffffffffffffffffffffffffffffffffffff1681565b600081359050610b7181611185565b92915050565b600081359050610b868161119c565b92915050565b600060208284031215610b9e57600080fd5b6000610bac84828501610b77565b91505092915050565b60008060408385031215610bc857600080fd5b6000610bd685828601610b77565b9250506020610be785828601610b62565b9150509250929050565b6000610bfd8383610c3f565b60208301905092915050565b6000610c158383610e5d565b60a08301905092915050565b610c2a816110c5565b82525050565b610c39816110c5565b82525050565b610c48816110b3565b82525050565b610c57816110b3565b82525050565b6000610c6882611050565b610c728185611080565b9350610c7d83611030565b8060005b83811015610cae578151610c958882610bf1565b9750610ca083611066565b925050600181019050610c81565b5085935050505092915050565b6000610cc68261105b565b610cd08185611091565b9350610cdb83611040565b8060005b83811015610d0c578151610cf38882610c09565b9750610cfe83611073565b925050600181019050610cdf565b5085935050505092915050565b610d22816110d7565b82525050565b610d31816110d7565b82525050565b6000610d44601e836110a2565b91507f7472616e736665722068617320616c7265616479206265656e2073656e7400006000830152602082019050919050565b6000610d84601d836110a2565b91507f63616e6e6f7420617070726f7665207472616e736665722074776963650000006000830152602082019050919050565b6000610dc46024836110a2565b91507f6f6e6c7920617070726f766572732061726520616c6c6f77656420746f20616360008301527f63657373000000000000000000000000000000000000000000000000000000006020830152604082019050919050565b6000610e2a6014836110a2565b91507f5468652062616c616e636520697320656d7074790000000000000000000000006000830152602082019050919050565b60a082016000820151610e736000850182610ec5565b506020820151610e866020850182610ec5565b506040820151610e996040850182610c21565b506060820151610eac6060850182610ec5565b506080820151610ebf6080850182610d19565b50505050565b610ece81611103565b82525050565b610edd81611103565b82525050565b6000602082019050610ef86000830184610c4e565b92915050565b60006020820190508181036000830152610f188184610c5d565b905092915050565b60006020820190508181036000830152610f3a8184610cbb565b905092915050565b60006020820190508181036000830152610f5b81610d37565b9050919050565b60006020820190508181036000830152610f7b81610d77565b9050919050565b60006020820190508181036000830152610f9b81610db7565b9050919050565b60006020820190508181036000830152610fbb81610e1d565b9050919050565b6000602082019050610fd76000830184610ed4565b92915050565b600060a082019050610ff26000830188610ed4565b610fff6020830187610ed4565b61100c6040830186610c30565b6110196060830185610ed4565b6110266080830184610d28565b9695505050505050565b6000819050602082019050919050565b6000819050602082019050919050565b600081519050919050565b600081519050919050565b6000602082019050919050565b6000602082019050919050565b600082825260208201905092915050565b600082825260208201905092915050565b600082825260208201905092915050565b60006110be826110e3565b9050919050565b60006110d0826110e3565b9050919050565b60008115159050919050565b600073ffffffffffffffffffffffffffffffffffffffff82169050919050565b6000819050919050565b600061111882611103565b91507fffffffffffffffffffffffffffffffffffffffffffffffffffffffffffffffff82141561114b5761114a611156565b5b600182019050919050565b7f4e487b7100000000000000000000000000000000000000000000000000000000600052601160045260246000fd5b61118e816110c5565b811461119957600080fd5b50565b6111a581611103565b81146111b057600080fd5b5056fea26469706673582212203cb06bd26f4bb445f266b4e2dec9a0e84e7ac5d76835c39a0fc824a6e206904164736f6c63430008000033",
  "linkReferences": {},
  "deployedLinkReferences": {}
}